:020000040800F2
:1000000000500020F11C0008011C0008071C00081B
:100010000D1C0008131C0008191C0008000000003B
:100020000000000000000000000000001F1C00088D
:100030002B1C000800000000371C0008431C0008AF
:10004000391D0008391D0008391D0008391D000838
:10005000391D0008391D0008391D0008391D000828
:10006000391D0008391D0008391D0008391D000818
:10007000391D0008391D0008391D0008391D000808
:10008000391D0008391D0008391D0008391D0008F8
:10009000391D0008391D0008391D0008391D0008E8
:1000A000391D0008391D0008391D0008391D0008D8
:1000B000511C0008391D0008391D0008391D0008B1
:1000C000391D0008391D0008391D0008391D0008B8
:1000D000391D0008391D0008651C0008391D00087D
:1000E000391D0008391D0008391D000800000000F6
:1000F0000000000000000000000000000000000000
:0C01000000000000000000005FF808F1A3
:10010C0010B5054C237833B9044B13B10448AFF345
:10011C0000800123237010BD94000020000000001B
:10012C00F050000808B5034B1BB103490348AFF36B
:10013C00008008BD0000000098000020F05000086E
:10014C00034613F8012B002AFBD1181A013870470B
:10015C0080B500AF884B1B78022B2DD0022B3DDCD9
:10016C00002B02D0012B0DD038E0002000F08AF9D2
:10017C000346002B2DD0804B01221A707F4B01229D
:10018C001A6026E0002000F07DF90346002B06D112
:10019C00794B00221A70794B00221A601BE0002068
:1001AC0000F08AF90346002B15D0734B02221A700B
:1001BC00724B01221A600EE0002000F063F9034636
:1001CC00002B0AD16C4B00221A706C4B00221A6067
:1001DC0003E000BF02E000BF00E000BF684B1B78EB
:1001EC00022B2DD0022B3DDC002B02D0012B0DD08D
:1001FC0038E0012000F046F90346002B2DD0604B6F
:10020C0001221A705D4B01225A6026E0012000F099
:10021C0039F90346002B06D1594B00221A70574B63
:10022C0000225A601BE0012000F046F90346002B27
:10023C0015D0534B02221A70504B01225A600EE01B
:10024C00012000F01FF90346002B0AD14C4B002271
:10025C001A704A4B00225A6003E000BF02E000BF54
:10026C0000E000BF474B1B78022B2DD0022B3DDC4E
:10027C00002B02D0012B0DD038E0022000F002F947
:10028C000346002B2DD03F4B01221A703B4B012211
:10029C009A6026E0022000F0F5F80346002B06D108
:1002AC00384B00221A70354B00229A601BE002205A
:1002BC0000F002F90346002B15D0324B02221A70C3
:1002CC002E4B01229A600EE0022000F0DBF8034670
:1002DC00002B0AD12B4B00221A70284B00229A605B
:1002EC0003E000BF02E000BF00E000BF264B1B781C
:1002FC00022B2DD0022B3DDC002B02D0012B0DD07C
:10030C0038E0032000F0BEF80346002B2DD01E4B26
:10031C0001221A70194B0122DA6026E0032000F04A
:10032C00B1F80346002B06D1174B00221A70134B61
:10033C000022DA601BE0032000F0BEF80346002B1D
:10034C0015D0114B02221A700C4B0122DA600EE010
:10035C00032000F097F80346002B0AD10A4B002229
:10036C001A70064B0022DA6003E000BF02E000BF07
:10037C0000E000BF00BF80BDB0000020B80000202E
:10038C00B1000020B2000020B300002090B583B073
:10039C0000AF0023FB715DE0FB79022B13D0FA79DF
:1003AC00FB793049895C304AD154FB792F4A32F8B9
:1003BC001330FC7919462E4802F060F803461A46B1
:1003CC00284B1A5512E0FA79FB792649895C264AA2
:1003DC00D154FB79254A32F81330FC79194625485B
:1003EC0002F04CF803461A461E4B1A55FB791D4A6F
:1003FC00D25CFB791C49CB5C9A4205D1FA79FB792A
:10040C001849895C1C4AD154FB791B4AD35C002BDC
:10041C0014D1FB79194A32F81330632B09D8FB79C4
:10042C00164A32F81320013291B2144A22F81310F2
:10043C000DE0FB79124A0121D15408E0FB790F4AF7
:10044C00002122F81310FB790D4A0021D154FB79BD
:10045C000133FB71FB79032B9ED900BF00BF0C3716
:10046C00BD4690BD000000200400002008000020C4
:10047C0000080140000C0140C8000020D000002002
:10048C00CC00002080B483B000AF0346FB71FB7935
:10049C00032B01D9002307E0FB79064AD35C002B20
:1004AC000CBF01230023DBB218460C37BD4680BCC1
:1004BC00704700BFC800002080B483B000AF034673
:1004CC00FB71FB79032B01D9FF2307E0FB79064A6B
:1004DC00D35C012B0CBF01230023DBB218460C3775
:1004EC00BD4680BC704700BFCC00002080B500AF7B
:1004FC0001F01EFC00F02EF800F05AF900F06CF838
:10050C0000F02CF900F0B4F80D4802F045FC002185
:10051C000C4802F0EBFC00F059FF012200210A48C4
:10052C0000F082FF01220021084800F07DFF01222B
:10053C000021074800F078FF01F0CCF8FCE700BF81
:10054C0080040020380400201D0E000899030008C8
:10055C00C919000880B590B000AF07F11803282224
:10056C000021184604F07CF93B1D00221A605A60E9
:10057C009A60DA601A610223BB610123BB6210230B
:10058C00FB6202237B630023BB634FF46013FB63AA
:10059C0007F11803184601F0A1FF0346002B01D008
:1005AC0000F083F90F237B600223BB600023FB6008
:1005BC004FF480633B6100237B613B1D0221184695
:1005CC0002F00CFA0346002B01D000F06EF900BFCC
:1005DC004037BD4680BD000080B586B000AF07F146
:1005EC00080300221A605A609A60DA603B460022C7
:1005FC001A605A601D4B4FF080421A601B4B4FF62D
:10060C00FF125A60194B00229A60184B0922DA60CB
:10061C00164B00221A61154B00229A61134802F006
:10062C006BFB0346002B01D000F03FF94FF48053D5
:10063C00BB6007F1080319460C4802F0C3FE0346E1
:10064C00002B01D000F031F900233B6000237B60CC
:10065C003B461946054803F045FA0346002B01D0EA
:10066C0000F023F900BF1837BD4680BD8004002080
:10067C0080B58EB000AF07F1280300221A605A60D3
:10068C009A60DA6007F1200300221A605A603B1D61
:10069C0000221A605A609A60DA601A615A619A6193
:1006AC002C4B2D4A1A602B4B3F225A60294B0022AF
:1006BC009A60284B40F2E732DA60264B00221A612E
:1006CC00244B00229A61234802F016FB0346002BB0
:1006DC0001D000F0EAF84FF48053BB6207F1280315
:1006EC0019461C4802F06EFE0346002B01D000F0A8
:1006FC00DCF8184802F0A2FB0346002B01D000F0F6
:10070C00D4F800233B6200237B6207F120031946D7
:10071C00104803F0E7F90346002B01D000F0C5F8B0
:10072C0060237B600023BB600023FB6000237B61A4
:10073C003B1D00221946074802F082FD0346002BA0
:10074C0001D000F0B2F8034801F0D0F900BF3837FF
:10075C00BD4680BD380400200004004080B500AFC9
:10076C00114B124A1A60104B4FF416525A600E4B32
:10077C0000229A600C4B0022DA600B4B00221A61AB
:10078C00094B0C225A61084B00229A61064B00223D
:10079C00DA61054803F016FA0346002B01D000F08D
:1007AC0084F800BF80BD00BFC80400200044004096
:1007BC0080B586B000AF07F1080300221A605A60BA
:1007CC009A60DA602E4B9B692D4A43F004039361C7
:1007DC002B4B9B6903F004037B607B68284B9B6964
:1007EC00274A43F008039361254B9B6903F00803E8
:1007FC003B603B6800224FF48761224801F055FEB4
:10080C0000224FF4A061204801F04FFE1323BB607F
:10081C000023FB6000233B6107F1080319461A48CB
:10082C0001F0A8FC0123BB600023FB6000233B61AB
:10083C0007F108031946134801F09CFC4FF4876339
:10084C00BB600123FB6000233B6102237B6107F14A
:10085C00080319460B4801F08DFC4FF4A063BB60F4
:10086C000123FB6000233B6102237B6107F108033A
:10087C001946054801F07EFC00BF1837BD4680BD07
:10088C0000100240000C01400008014080B582B00D
:10089C0000AF78607B681B68B3F1804F01D101F029
:1008AC0035F800BF0837BD4680BD80B400AF72B6C6
:1008BC0000BFFEE780B400AF0D4B1B68052B0FDDAE
:1008CC000C4B1B78002B0BD10B4B1B78002B03D044
:1008DC00094B1B78012B03D1084B01221A6003E052
:1008EC00064B00221A6000BF00BFBD4680BC70479B
:1008FC00F8000020B5000020B4000020D800002033
:10090C0080B400AF034B00221A6000BFBD4680BC10
:10091C00704700BFDC00002080B400AF124B1B6896
:10092C00012B0ED1114B1B68632B04DC0F4B1B6886
:10093C0019330E4A13600D4B1A680D4B1B685A6322
:10094C0007E0094B1B68002B03D1094B1B680022E5
:10095C005A63054B1B68C3F10103034A136000BFC4
:10096C00BD4680BC704700BFE0000020DC000020CA
:10097C003804002080B582B000AF094A3B4692E8AB
:10098C00030018600433197039464FF0FF3304220A
:10099C00044803F067F900BF0837BD4680BD00BFAF
:1009AC0008510008C804002080B582B000AF786000
:1009BC007868FFF7C5FB03469AB24FF0FF337968AE
:1009CC00034803F04FF900BF0837BD4680BD00BF98
:1009DC00C804002080B59CB000AF786007F10C0310
:1009EC007A680849184603F043FF03469AB207F1A8
:1009FC000C014FF0FF33044803F034F900BF70379B
:100A0C00BD4680BD10510008C804002080B500AF61
:100A1C00FFF7B0FF2B4B1B78032B4FD801A252F8DA
:100A2C0023F000BF410A0008630A0008850A000889
:100A3C00A70A00082448FFF7B7FF244B1B68184689
:100A4C00FFF7C8FF2248FFF7AFFF224B1B68184681
:100A5C00FFF7C0FF33E01C48FFF7A6FF1B4B1B68DA
:100A6C001846FFF7B7FF1C48FFF79EFF194B1B6892
:100A7C001846FFF7AFFF22E01548FFF795FF134B21
:100A8C001B681846FFF7A6FF0F48FFF78DFF114BA9
:100A9C001B681846FFF79EFF11E00F48FFF784FF15
:100AAC000A4B1B681846FFF795FF0748FFF77CFFBA
:100ABC00084B1B681846FFF78DFF00E000BF00BF16
:100ACC0080BD00BFB400002018510008F8000020C1
:100ADC0020510008FC0000202851000880B500AF10
:100AEC001F4B1B68012B38D11E4B1B68012B15D1DA
:100AFC0001224FF480611C4801F0D7FC0022082130
:100B0C001A4801F0D2FC01222021184801F0CDFC3A
:100B1C0000221021154801F0C8FC14E000224FF40B
:100B2C008061114801F0C1FC002208210F4801F03E
:100B3C00BCFC002220210D4801F0B7FC0022102142
:100B4C000A4801F0B2FC074B1B68C3F10103054ACC
:100B5C0013604FF4FA7000F0F9FE00BF80BD00BFC7
:100B6C0004010020E400002000080140000C0140BA
:100B7C0080B500AF1F4B1B68012B38D11E4B1B6877
:100B8C00012B15D101224FF480611C4801F08DFC22
:100B9C00012208211A4801F088FC01222021184862
:100BAC0001F083FC01221021154801F07EFC14E0B9
:100BBC0000224FF48061114801F077FC00220821DB
:100BCC000F4801F072FC002220210D4801F06DFC51
:100BDC00002210210A4801F068FC074B1B68C3F186
:100BEC000103054A13604FF4FA7000F0AFFE00BF2A
:100BFC0080BD00BF04010020E4000020000801407B
:100C0C00000C014080B500AF1F4B1B68012B38D185
:100C1C001E4B1B68012B15D100224FF480611C4820
:100C2C0001F043FC012208211A4801F03EFC00228D
:100C3C002021184801F039FC01221021154801F03F
:100C4C0034FC14E000224FF48061114801F02DFCBB
:100C5C00002208210F4801F028FC002220210D4819
:100C6C0001F023FC002210210A4801F01EFC074B66
:100C7C001B68C3F10103054A13604FF4FA7000F0CE
:100C8C0065FE00BF80BD00BF04010020E400002011
:100C9C0000080140000C014080B500AF01224FF468
:100CAC008061054801F001FC00224FF4807103487B
:100CBC0001F0FBFB00BF80BD000C014000080140AF
:100CCC0080B500AF00224FF48061054801F0EDFBC8
:100CDC0001224FF48071034801F0E7FB00BF80BD97
:100CEC00000C01400008014080B500AF424B1B785E
:100CFC00032B7DD801A252F823F000BF190D000878
:100D0C00730D0008CD0D0008E50D00083B4B1B686A
:100D1C00012B25D13A4B1B68052B01DCFFF7FCFDA1
:100D2C00384B1B681846FFF755FE374B1B686FF0A6
:100D3C00310202FB03F303F57A73184600F022FE2E
:100D4C00314B1B6801336FF0310202FB03F36FF47C
:100D5C006D72934204DB2C4B1B6801332A4A1360DF
:100D6C00FFF7AEFF45E0254B1B68012B25D1244B2B
:100D7C001B68052B01DCFFF7CFFD224B1B681846C7
:100D8C00FFF728FE204B1B686FF0310202FB03F3C8
:100D9C0003F57A73184600F0F5FD1B4B1B68013305
:100DAC006FF0310202FB03F36FF46D72934204DBBC
:100DBC00154B1B680133144A1360FFF781FF18E0D1
:100DCC00FFF76AFFFFF79CFD104B1B6800225A636C
:100DDC000D4B00221A600CE0FFF75EFFFFF790FD51
:100DEC000A4B1B6800225A63074B00221A6000E072
:100DFC0000BF00BF80BD00BFB40000200801002070
:100E0C00F8000020DC000020E8000020380400205E
:100E1C0080B582B000AFFFF79BF9974B1B68002B96
:100E2C0047D000224FF48061944801F03EFB002231
:100E3C000821934801F039FB00222021904801F051
:100E4C0034FB002210218E4801F02FFB8D4B1B68C8
:100E5C008D4A13608B4B5B688B4A5360894B9B6844
:100E6C00894A9360894B1B780133DAB2874B1A702D
:100E7C00864B1B78032B02D9844B00221A70FFF788
:100E8C0079FD8348FFF790FD804B1B781846FFF7E0
:100E9C00A1FD804B00221A60774B00221A60FFF7ED
:100EAC002FFD7D4B1B6800225A637C4B00221A607D
:100EBC002AE1714B5B68002B39D0744B1B78032BE8
:100ECC0022D0032B2EDC012B02D0022B0ED029E0DA
:100EDC007348FFF769FD6C4B1B6801336A4A13605A
:100EEC00694B1B681846FFF775FD1CE06D48FFF752
:100EFC005BFD654B5B680133634A5360624B5B6817
:100F0C001846FFF767FD0EE06748FFF74DFD5E4B97
:100F1C009B6801335C4A93605B4B9B681846FFF7F8
:100F2C0059FD00E000BF544B00225A60ECE0524BDC
:100F3C009B68002B00F0D880544B1B78032B76D089
:100F4C00032B00F3CC80012B02D0022B36D0C6E051
:100F5C004D4B1B684B4A13604A4B1A68494B9968B6
:100F6C00484B5B680B449A4207DB464B1A68454B6F
:100F7C005B68D31A434A936015E0424B1B68DA0F47
:100F8C0013445B107B603F4B1B68002B03F0010389
:100F9C00B8BF5B423B603B4A7B6853607A683B68F6
:100FAC001344384A9360FFF7E5FC4048FFF7FCFC1C
:100FBC00354B1B681846FFF70DFD91E0324B5B6813
:100FCC00304A53602F4B1A682E4B59682D4B9B6837
:100FDC000B449A4207DB2B4B1A682A4B5B68D31ADB
:100FEC00284A936018E0274B9A68264B5B68134499
:100FFC00632B07DC234B9A68224B5B681344214A12
:10100C00136009E01F4B63221A601E4B1A681D4BBC
:10101C005B68D31A1B4A9360FFF7ACFC2448FFF7BC
:10102C00C3FC194B5B681846FFF7D4FC58E0164B11
:10103C009B68144A9360134B1A68124B9968114BB6
:10104C005B680B449A4207DB0E4B1A680D4B9B688E
:10105C00D31A0C4A536037E00A4B5A68094B9B6809
:10106C001344632B26DC074B5A68064B9B681344CE
:10107C00044A136028E000BFB800002000080140BB
:10108C00000C014010000020EC000020B5000020F6
:10109C0030510008D800002038040020E80000205F
:1010AC003851000850510008685100088051000860
:1010BC0094510008334B63221A60324B1A68314B3F
:1010CC009B68D31A2F4A5360FFF754FC2E48FFF746
:1010DC006BFC2E4B9B681846FFF77CFC00E000BFB6
:1010EC002B4B00229A600FE0294BDB68002B0BD0B6
:1010FC00FFF7E0FB4FF47A7000F044FC2548FFF753
:10110C0053FC234B0022DA60234B1B78032B34D87F
:10111C0001A252F823F000BF351100087511000828
:10112C007B110008811100081C4B1B68012B07D197
:10113C0000F03CF8FFF76AFC4FF47A7000F006FC04
:10114C00174B1B68012B02D1FFF7CEFD16E00022D6
:10115C004FF48061134801F0A8F900224FF480711C
:10116C00114801F0A2F909E0FFF7B8FC06E0FFF71F
:10117C00FFFC03E0FFF746FD00E000BF00BF0837AF
:10118C00BD4680BD10000020A8510008EC000020D6
:10119C00B8000020BC510008B5000020040100205C
:1011AC00D8000020000C01400008014080B500AFC1
:1011BC00804B1B78042B00F2F28001A252F823F032
:1011CC002312000885120008ED1200084D130008C8
:1011DC00E111000800224FF48061774801F065F9B5
:1011EC0000220821754801F060F900222021734883
:1011FC0001F05BF900221021704801F056F9704B98
:10120C001B68704A13606E4B9B686F4A1360694B86
:10121C0000221A70CCE06B4B1B68013B694A1360CF
:10122C00694B1B68013B684A136001224FF48061D3
:10123C00614801F03AF900220821604801F035F9C3
:10124C00002220215D4801F030F9012210215B4879
:10125C0001F02BF900224021574801F026F95A4B96
:10126C001B68002B00F39D80524B01221A70544BCB
:10127C005B68554A136094E0524B1B68013B514A22
:10128C001360514B1B68013B4F4A136001224FF412
:10129C008061494801F009F900220821474801F012
:1012AC0004F901222021454801F0FFF80122102108
:1012BC00424801F0FAF8012240213F4801F0F5F8CC
:1012CC00404B1B68002B6EDC3A4B02221A703C4BD5
:1012DC009B683C4A13603A4B1B683B4A136062E0C4
:1012EC00384B1B68013B374A1360374B1B68013B7B
:1012FC00354A136000224FF480612F4801F0D5F875
:10130C00012208212D4801F0D0F8012220212B4880
:10131C0001F0CBF800221021284801F0C6F8002279
:10132C004021254801F0C1F8264B1B68002B3CDC02
:10133C00204B03221A70224B5B68224A136034E064
:10134C00204B1B68013B1F4A13601F4B1B68013B62
:10135C001D4A136001224FF48061174801F0A5F873
:10136C0001220821154801F0A0F801222021134880
:10137C0001F09BF800221021104801F096F8114B57
:10138C001B68002B13DC0B4B00221A700C4B1B68D8
:10139C000C4A13600A4B9B680B4A136007E000BFB2
:1013AC0006E000BF04E000BF02E000BF00E000BFA9
:1013BC0000BF80BDB400002000080140000C0140BB
:1013CC0010000020F8000020FC00002080B582B046
:1013DC0000AF0023FB7106E0FB79184600F0A2F980
:1013EC00FB790133FB71FB79272BF5D900BF00BFCB
:1013FC000837BD4680BD000080B400AF094B1B68A8
:10140C000133084A1360074B1B68002B04D1054BB2
:10141C001B680133034A1360024B1B681846BD4618
:10142C0080BC70470001002090B589B000AFF86017
:10143C00B9607A600023FB770023BB6100233B611A
:10144C000023FB7733E1FA7FA14913469B00134439
:10145C009B000B4404331B68BA691344BB61BA6923
:10146C00BB689A4240F2C180FA7F994913469B00AF
:10147C0013449B000B4404331A68BB69D31ABA6833
:10148C0013443B61FA7FB969BB68C91A904813468B
:10149C009B0013449B000344043319602723FB7502
:1014AC004CE0FB7D591EFA7D89480B469B000B4492
:1014BC009B0003441968864813469B0013449B0009
:1014CC0003441960FB7D591EFA7D81480B469B0035
:1014DC000B449B000344083319687D4813469B005A
:1014EC0013449B00034408331960FB7D591EFA7D9D
:1014FC0077480B469B000B449B000344043319684C
:10150C00734813469B0013449B0003440433196037
:10151C00FB7D591EFA7D6E480B469B000B449B00CD
:10152C000344103319686A4813469B0013449B000C
:10153C00034410331960FB7D013BFB75FA7DFB7F87
:10154C009A42AED8FA7F624913469B0013449B0023
:10155C000B44FA681A60FA7F5D4913469B001344EA
:10156C009B000B4404333A691A60FA7F58491346BE
:10157C009B0013449B000B4408337A681A60FA7F73
:10158C00534913469B0013449B000B4404331B68C4
:10159C00002B0AD1FA7F4E4913469B0013449B0043
:1015AC000B440C3301221A7009E0FA7F48491346A8
:1015BC009B0013449B000B440C3300221A70FC7FDD
:1015CC00FFF71AFF0246424923469B0023449B0027
:1015DC000B4410331A60FA7F3D4913469B001344A9
:1015EC009B000B4410331B686EE0FA7F384913469E
:1015FC009B0013449B000B441B68002B54D1FA7FB7
:10160C00334913469B0013449B000B44FA681A6041
:10161C00FA7FB968BB69C91A2D4813469B0013445D
:10162C009B00034404331960FA7F294913469B003D
:10163C0013449B000B4408337A681A60FA7F2449E0
:10164C0013469B0013449B000B4404331B68002B74
:10165C000AD1FA7F1E4913469B0013449B000B448E
:10166C000C3301221A7009E0FA7F194913469B00CA
:10167C0013449B000B440C3300221A70FC7FFFF7C1
:10168C00BBFE0246124923469B0023449B000B449D
:10169C0010331A60FA7F0E4913469B0013449B00CB
:1016AC000B4410331B680FE0FB7F0133FB77FB7F90
:1016BC00272B7FF6C8AEFA7F054913469B001344CF
:1016CC009B000B4410331B6818462437BD4690BD55
:1016DC0018010020B0B586B000AF114B1B7B002B5E
:1016EC0019D00F4B1B6898470D4B00221A730C4BEB
:1016FC003C1D1D460FCD0FC42B6823607B6918461B
:10170C0000F010F8FB68002B05D07B68F968FA68CC
:10171C001846FFF789FE00BF1837BD46B0BD00BFA5
:10172C001801002080B485B000AF786000237B7373
:10173C007B68002B00F0E2800023FB73DAE0FA7B7D
:10174C00714913469B0013449B000B4410331B68D8
:10175C007A689A4240F0CB8001237B73FB7B002B91
:10176C002BD0FB7B262B28D8FB7B5A1C66491346B7
:10177C009B0013449B000B441B68002B1DD0FB7B70
:10178C005A1C614913469B0013449B000B440433C1
:10179C001968FA7B5C4813469B0013449B00034476
:1017AC0004331B68FA7B01321944574813469B00DB
:1017BC0013449B00034404331960FB7BBB7360E050
:1017CC00BB7B591CBA7B50480B469B000B449B00BF
:1017DC00034419684C4813469B0013449B00034474
:1017EC001960BB7B591CBA7B47480B469B000B44CA
:1017FC009B00034408331968434813469B00134469
:10180C009B00034408331960BB7B591CBA7B3E48D0
:10181C000B469B000B449B000344043319683A4865
:10182C0013469B0013449B00034404331960BB7B99
:10183C00591CBA7B34480B469B000B449B00034459
:10184C000C331878304913469B0013449B000B440F
:10185C000C3302461A70BB7B591CBA7B2A480B46C8
:10186C009B000B449B000344103319682648134615
:10187C009B0013449B00034410331960BB7B013362
:10188C00BB73BB7B262B9BD9BA7B1F4913469B0092
:10189C0013449B000B4400221A60BA7B1A4913466E
:1018AC009B0013449B000B44083300221A60BA7B44
:1018BC00154913469B0013449B000B440433002230
:1018CC001A60BA7B104913469B0013449B000B44CF
:1018DC000C3300221A70BA7B0B4913469B0013443D
:1018EC009B000B44103300221A607B7B07E0FB7BD0
:1018FC000133FB73FB7B272B7FF621AF7B7B1846D9
:10190C001437BD4680BC70471801002080B400AF6E
:10191C000D4B1B68002B13D00B4B1B7B002B0FD1DB
:10192C00094B5B68002B04D0074B5B68013B064AF4
:10193C005360054B5B68002B02D1034B01221A73D9
:10194C0000BFBD4680BC70471801002080B483B036
:10195C0000AF78607B68084A82FB03129210DB1799
:10196C00D31A064A1360064B00221A6000BF0C37CC
:10197C00BD4680BC704700BF676666661C000020D1
:10198C000401002080B483B000AF78607B68084A03
:10199C0082FB03129210DB17D31A064A1360064B14
:1019AC0000221A6000BF0C37BD4680BC704700BFD8
:1019BC0067666666200000200801002080B400AF36
:1019CC00114B1B68002B0BDD0F4B1B68013B0E4AA8
:1019DC0013600D4B1B68002B02DC0C4B01221A60B0
:1019EC000B4B1B68002B0BDD094B1B68013B084A9A
:1019FC001360074B1B68002B02DC064B01221A609C
:101A0C0000BFBD4680BC70471C00002004010020B4
:101A1C00200000200801002080B485B000AF154BD9
:101A2C009B69144A43F001039361124B9B6903F0C9
:101A3C000103BB60BB680F4BDB690E4A43F080535C
:101A4C00D3610C4BDB6903F080537B607B680A4BE2
:101A5C005B68FB60FB6823F0E063FB60FB6843F0B2
:101A6C000073FB60044AFB68536000BF1437BD462B
:101A7C0080BC7047001002400000014080B584B06B
:101A8C0000AF78607B681B68B3F1804F14D1154BA5
:101A9C00DB69144A43F00103D361124BDB6903F099
:101AAC000103FB60FB68002200211C2000F079FA86
:101ABC001C2000F092FA10E07B681B680A4A9342E3
:101ACC000BD1084BDB69074A43F00203D361054B8A
:101ADC00DB6903F00203BB60BB6800BF1037BD4677
:101AEC0080BD00BF001002400004004080B588B0EB
:101AFC0000AF786007F1100300221A605A609A60F8
:101B0C00DA607B681B680F4A934217D10E4B9B69B6
:101B1C000D4A43F0040393610B4B9B6903F00403E0
:101B2C00FB60FB6840233B6102237B610223FB616A
:101B3C0007F110031946054800F01CFB00BF2037C5
:101B4C00BD4680BD0004004000100240000801406A
:101B5C0080B588B000AF786007F1100300221A60DE
:101B6C005A609A60DA607B681B681F4A934237D1CF
:101B7C001E4BDB691D4A43F40033D3611B4BDB69FD
:101B8C0003F40033FB60FB68184B9B69174A43F066
:101B9C0004039361154B9B6903F00403BB60BB68A2
:101BAC0004233B6102237B610323FB6107F11003D8
:101BBC0019460F4800F0DEFA08233B6100237B61D5
:101BCC000023BB6107F110031946094800F0D2FA53
:101BDC0000220021262000F0E4F9262000F0FDF977
:101BEC0000BF2037BD4680BD0044004000100240BD
:101BFC000008014080B400AFFEE780B400AFFEE700
:101C0C0080B400AFFEE780B400AFFEE780B400AF55
:101C1C00FEE780B400AF00BFBD4680BC704780B407
:101C2C0000AF00BFBD4680BC704780B400AF00BFA2
:101C3C00BD4680BC704780B500AF00F0BFF800BF58
:101C4C0080BD000080B500AF024801F0F1F900BF83
:101C5C0080BD00BF8004002080B500AF024802F0B8
:101C6C0085F800BF80BD00BFC804002080B586B0D9
:101C7C0000AF7860144A154BD31A7B617B693B61CA
:101C8C00134B1B68002B02D1114B124A1A60104BDC
:101C9C001A687B6813443A699A4207D202F0B6FD7F
:101CAC0003460C221A604FF0FF3309E0084B1B6807
:101CBC00FB60074B1A687B681344054A1360FB688A
:101CCC0018461837BD4680BD0050002000040000A7
:101CDC000C0100202805002080B400AF00BFBD46D9
:101CEC0080BC7047FFF7F8FF0B480C490C4A0023E7
:101CFC0002E0D458C4500433C4188C42F9D3094AB6
:101D0C00094C002301E013600432A242FBD302F021
:101D1C0083FDFEF7EBFB70470000002094000020D1
:101D2C00385200089400002024050020FEE7000033
:101D3C0080B500AF084B1B68074A43F010031360D3
:101D4C00032000F023F90F2000F008F8FFF764FEE1
:101D5C000023184680BD00BF0020024080B582B031
:101D6C0000AF7860124B1A68124B1B7819464FF46F
:101D7C007A73B3FBF1F3B2FBF3F3184600F03BF9C3
:101D8C000346002B01D001230EE07B680F2B0AD8F1
:101D9C00002279684FF0FF3000F003F9064A7B68A7
:101DAC001360002300E0012318460837BD4680BDB0
:101DBC00240000202C0000202800002080B400AF5C
:101DCC00054B1B781A46054B1B681344034A1360DA
:101DDC0000BFBD4680BC70472C00002010050020C1
:101DEC0080B400AF024B1B681846BD4680BC7047E0
:101DFC001005002080B485B000AF78607B6803F0DC
:101E0C000703FB600C4BDB68BB60BA684FF6FF0343
:101E1C001340BB60FB681A02BB68134343F0BF63FB
:101E2C0043F40033BB60044ABB68D36000BF143773
:101E3C00BD4680BC704700BF00ED00E080B400AF31
:101E4C00044BDB681B0A03F007031846BD4680BC35
:101E5C00704700BF00ED00E080B483B000AF0346D4
:101E6C00FB7197F90730002B0BDBFB7903F01F029A
:101E7C00064997F907305B09012000FA02F241F894
:101E8C00232000BF0C37BD4680BC704700E100E04A
:101E9C0080B483B000AF03463960FB7197F907300B
:101EAC00002B0ADB3B68DAB20C4997F907301201B8
:101EBC00D2B20B4483F800230AE03B68DAB208493B
:101ECC00FB7903F00F03043B1201D2B20B441A76D8
:101EDC0000BF0C37BD4680BC704700BF00E100E07E
:101EEC0000ED00E080B489B000AFF860B9607A60B2
:101EFC00FB6803F00703FB61FB69C3F10703042BC9
:101F0C0028BF0423BB61FB690433062B02D9FB6990
:101F1C00033B00E000237B614FF0FF32BB6902FA08
:101F2C0003F3DA43BB681A407B699A404FF0FF31E8
:101F3C007B6901FA03F3D9437B680B4013431846C2
:101F4C002437BD4680BC704780B582B000AF786046
:101F5C007B68013BB3F1807F01D301230FE00A4A78
:101F6C007B68013B53600F214FF0FF30FFF790FF70
:101F7C00054B00229A60044B07221A600023184676
:101F8C000837BD4680BD00BF10E000E080B582B0D0
:101F9C0000AF78607868FFF72DFF00BF0837BD46AB
:101FAC0080BD80B586B000AF0346B9607A60FB7324
:101FBC0000237B61FFF742FF78617A68B968786922
:101FCC00FFF790FF024697F90F3011461846FFF7BE
:101FDC005FFF00BF1837BD4680BD80B582B000AF33
:101FEC000346FB7197F907301846FFF735FF00BF22
:101FFC000837BD4680BD80B582B000AF7860786888
:10200C00FFF7A2FF034618460837BD4680BD80B4D3
:10201C0085B000AF78600023FB737B6893F82130A8
:10202C00DBB2022B08D07B6804229A637B68002207
:10203C0083F82020012320E07B681B681A687B68EA
:10204C001B6822F00E021A607B681B681A687B689A
:10205C001B6822F001021A607B681A6C7B68DB6BD0
:10206C00012101FA02F25A607B68012283F82120D7
:10207C007B68002283F82020FB7B18461437BD4672
:10208C0080BC704780B584B000AF78600023FB73D0
:10209C007B6893F82130DBB2022B05D07B680422DD
:1020AC009A630123FB7351E07B681B681A687B6899
:1020BC001B6822F00E021A607B681B681A687B682A
:1020CC001B6822F001021A607B681B68224A93424B
:1020DC0029D07B681B68214A934222D07B681B68FD
:1020EC001F4A93421AD07B681B681E4A934212D037
:1020FC007B681B681C4A93420AD07B681B681B4A8E
:10210C00934202D14FF480130EE04FF080730BE03A
:10211C004FF4803308E04FF4805305E04FF48073A4
:10212C0002E0102300E00123114A53607B68012276
:10213C0083F821207B68002283F820207B685B6B6E
:10214C00002B03D07B685B6B78689847FB7B184649
:10215C001037BD4680BD00BF080002401C00024085
:10216C003000024044000240580002406C00024023
:10217C000000024080B48BB000AF7860396000235F
:10218C007B6200233B6269E101227B6A02FA03F362
:10219C00FB613B681B68FA691340BB61BA69FB6958
:1021AC009A4240F058813B685B689A4A93425ED0F1
:1021BC00984A934275D8984A934258D0964A93427B
:1021CC006FD8964A934252D0944A934269D8944A13
:1021DC0093424CD0924A934263D8924A934246D04F
:1021EC00904A93425DD8122B2AD8122B59D801A2AF
:1021FC0052F823F07B2200085522000867220008C1
:10220C00A9220008AF220008AF220008AF22000864
:10221C00AF220008AF220008AF220008AF2200084E
:10222C00AF220008AF220008AF220008AF2200083E
:10223C00AF220008AF2200085D22000871220008BE
:10224C00794A934213D02CE03B68DB683B6229E06F
:10225C003B68DB6804333B6224E03B68DB68083393
:10226C003B621FE03B68DB680C333B621AE03B6867
:10227C009B68002B02D104233B6213E03B689B68F4
:10228C00012B05D108233B627B68FA691A6109E0CE
:10229C0008233B627B68FA695A6103E000233B62C6
:1022AC0000E000BFBB69FF2B01D87B6801E07B68B5
:1022BC0004337B61BB69FF2B02D87B6A9B0002E075
:1022CC007B6A083B9B003B617B691A680F213B6969
:1022DC0001FA03F3DB431A40396A3B6901FA03F351
:1022EC001A437B691A603B685B6803F08053002BD0
:1022FC0000F0B1804D4B9B694C4A43F00103936154
:10230C004A4B9B6903F00103BB60BB68484A7B6A7C
:10231C009B08023352F82330FB607B6A03F0030303
:10232C009B000F2202FA03F3DB43FA681340FB60B5
:10233C007B68404A934213D07B683F4A93420DD04E
:10234C007B683E4A934207D07B683D4A934201D159
:10235C00032306E0042304E0022302E0012300E04F
:10236C0000237A6A02F0030292009340FA68134346
:10237C00FB602F497B6A9B080233FA6841F82320E3
:10238C003B685B6803F48013002B06D02D4B9A68D6
:10239C002C49BB6913438B6006E02A4B9A68BB69D6
:1023AC00DB43284913408B603B685B6803F40013E4
:1023BC00002B06D0234BDA682249BB691343CB6050
:1023CC0006E0204BDA68BB69DB431E491340CB6047
:1023DC003B685B6803F40033002B06D0194B5A683A
:1023EC001849BB6913434B6006E0164B5A68BB692E
:1023FC00DB43144913404B603B685B6803F4803348
:10240C00002B21D00F4B1A680E49BB6913430B608C
:10241C0021E000BF0000321000003110000022103B
:10242C0000002110000012100000111000100240DA
:10243C000000014000080140000C01400010014068
:10244C0000140140000401400B4B1A68BB69DB43CC
:10245C00094913400B607B6A01337B623B681A6845
:10246C007B6A22FA03F3002B7FF48EAE00BF00BF11
:10247C002C37BD4680BC70470004014080B485B049
:10248C0000AF78600B467B807B689A687B88134032
:10249C00002B02D00123FB7301E00023FB73FB7BB9
:1024AC0018461437BD4680BC704780B483B000AF6B
:1024BC0078600B467B8013467B707B78002B03D0B7
:1024CC007A887B681A6103E07B881A047B681A613E
:1024DC0000BF0C37BD4680BC7047000080B586B08D
:1024EC0000AF78607B68002B01D101236CE27B6824
:1024FC001B6803F00103002B00F08780924B5B6894
:10250C0003F00C03042B0CD08F4B5B6803F00C0313
:10251C00082B12D18C4B5B6803F48033B3F5803FEE
:10252C000BD1894B1B6803F40033002B6CD07B68F8
:10253C005B68002B68D1012346E27B685B68B3F5CE
:10254C00803F06D1804B1B687F4A43F48033136075
:10255C002EE07B685B68002B0CD17B4B1B687A4AA6
:10256C0023F480331360784B1B68774A23F4802361
:10257C0013601DE07B685B68B3F5A02F0CD1724B28
:10258C001B68714A43F4802313606F4B1B686E4ABF
:10259C0043F4803313600BE06B4B1B686A4A23F4E3
:1025AC0080331360684B1B68674A23F480231360E5
:1025BC007B685B68002B13D0FFF712FC386108E0D6
:1025CC00FFF70EFC02463B69D31A642B01D9032397
:1025DC00FAE15D4B1B6803F40033002BF0D014E0E0
:1025EC00FFF7FEFB386108E0FFF7FAFB02463B6998
:1025FC00D31A642B01D90323E6E1534B1B6803F474
:10260C000033002BF0D100E000BF7B681B6803F0A7
:10261C000203002B63D04C4B5B6803F00C03002BC4
:10262C000BD0494B5B6803F00C03082B1CD1464BB9
:10263C005B6803F48033002B16D1434B1B6803F00B
:10264C000203002B05D07B681B69012B01D00123F1
:10265C00BAE13D4B1B6823F0F8027B685B69DB0039
:10266C00394913430B603AE07B681B69002B20D07F
:10267C00364B01221A60FFF7B3FB386108E0FFF715
:10268C00AFFB02463B69D31A022B01D903239BE112
:10269C002D4B1B6803F00203002BF0D02A4B1B6858
:1026AC0023F0F8027B685B69DB00274913430B605E
:1026BC0015E0264B00221A60FFF792FB386108E008
:1026CC00FFF78EFB02463B69D31A022B01D9032379
:1026DC007AE11D4B1B6803F00203002BF0D17B68E1
:1026EC001B6803F00803002B3AD07B689B69002B16
:1026FC0019D0174B01221A60FFF772FB386108E002
:10270C00FFF76EFB02463B69D31A022B01D9032358
:10271C005AE10D4B5B6A03F00203002BF0D0012051
:10272C0000F0CCFA1CE00A4B00221A60FFF758FBB1
:10273C0038610FE0FFF754FB02463B69D31A022BBA
:10274C0008D9032340E100BF0010024000004242C0
:10275C00800442429E4B5B6A03F00203002BE9D1DA
:10276C007B681B6803F00403002B00F0A680002399
:10277C00FB75974BDB6903F08053002B0DD1944B09
:10278C00DB69934A43F08053D361914BDB6903F0CF
:10279C008053BB60BB680123FB758E4B1B6803F435
:1027AC008073002B18D18B4B1B688A4A43F48073BF
:1027BC001360FFF715FB386108E0FFF711FB0246C9
:1027CC003B69D31A642B01D90323FDE0814B1B68B1
:1027DC0003F48073002BF0D07B68DB68012B06D1EF
:1027EC007B4B1B6A7A4A43F0010313622DE07B6832
:1027FC00DB68002B0CD1764B1B6A754A23F0010366
:10280C001362734B1B6A724A23F0040313621CE0BD
:10281C007B68DB68052B0CD16D4B1B6A6C4A43F053
:10282C00040313626A4B1B6A694A43F00103136287
:10283C000BE0674B1B6A664A23F001031362644B7F
:10284C001B6A634A23F0040313627B68DB68002B6A
:10285C0015D0FFF7C5FA38610AE0FFF7C1FA024656
:10286C003B69D31A41F28832934201D90323ABE07E
:10287C00574B1B6A03F00203002BEED014E0FFF75A
:10288C00AFFA38610AE0FFF7ABFA02463B69D31A9C
:10289C0041F28832934201D9032395E04C4B1B6AD9
:1028AC0003F00203002BEED1FB7D012B05D1484B2D
:1028BC00DB69474A23F08053D3617B68DB69002BCB
:1028CC0000F08180424B5B6803F00C03082B61D055
:1028DC007B68DB69022B46D13F4B00221A60FFF765
:1028EC007FFA386108E0FFF77BFA02463B69D31A9E
:1028FC00022B01D9032367E0354B1B6803F00073EF
:10290C00002BF0D17B681B6AB3F5803F08D1304BAC
:10291C005B6823F400327B689B682D4913434B6042
:10292C002B4B5B6823F474127B68196A7B685B6AB7
:10293C000B43274913434B60274B01221A60FFF7C7
:10294C004FFA386108E0FFF74BFA02463B69D31A9D
:10295C00022B01D9032337E01D4B1B6803F00073D6
:10296C00002BF0D02FE01C4B00221A60FFF738FA36
:10297C00386108E0FFF734FA02463B69D31A022BA0
:10298C0001D9032320E0124B1B6803F00073002BCA
:10299C00F0D118E07B68DB69012B01D1012313E036
:1029AC000B4B5B68FB60FB6803F480327B681B6A33
:1029BC009A4206D1FB6803F470127B685B6A9A42F8
:1029CC0001D0012300E0002318461837BD4680BD16
:1029DC0000100240007000406000424280B584B09C
:1029EC0000AF786039607B68002B01D10123D0E007
:1029FC006A4B1B6803F007033A689A4210D9674B7D
:102A0C001B6823F0070265493B6813430B60634B5B
:102A1C001B6803F007033A689A4201D00123B8E01F
:102A2C007B681B6803F00203002B20D07B681B68BB
:102A3C0003F00403002B05D0594B5B68584A43F450
:102A4C00E06353607B681B6803F00803002B05D020
:102A5C00534B5B68524A43F460535360504B5B6872
:102A6C0023F0F0027B689B684D4913434B607B68F5
:102A7C001B6803F00103002B40D07B685B68012BC3
:102A8C0007D1474B1B6803F40033002B15D10123EE
:102A9C007FE07B685B68022B07D1414B1B6803F01E
:102AAC000073002B09D1012373E03D4B1B6803F02D
:102ABC000203002B01D101236BE0394B5B6823F03F
:102ACC0003027B685B68364913434B60FFF788F958
:102ADC00F8600AE0FFF784F90246FB68D31A41F26A
:102AEC008832934201D9032353E02D4B5B6803F0EA
:102AFC000C027B685B689B009A42EBD1274B1B68EE
:102B0C0003F007033A689A4210D2244B1B6823F057
:102B1C00070222493B6813430B60204B1B6803F0F0
:102B2C0007033A689A4201D0012332E07B681B68A4
:102B3C0003F00403002B08D0194B5B6823F4E0620C
:102B4C007B68DB68164913434B607B681B6803F09A
:102B5C000803002B09D0124B5B6823F460527B688E
:102B6C001B69DB000E4913434B6000F021F8024651
:102B7C000B4B5B681B0903F00F030A49CB5C22FA71
:102B8C0003F3094A1360094B1B681846FFF7E6F874
:102B9C00002318461037BD4680BD00BF0020024000
:102BAC0000100240D0510008240000202800002012
:102BBC0080B487B000AF0023FB600023BB60002310
:102BCC007B6100237B6000233B611E4B5B68FB60D9
:102BDC00FB6803F00C03042B02D0082B03D027E076
:102BEC00194B3B6127E0FB689B0C03F00F03174A62
:102BFC00D35C7B60FB6803F48033002B10D0114B4B
:102C0C005B685B0C03F00103114AD35CBB607B680F
:102C1C000D4A02FB03F2BB68B2FBF3F37B6104E0E9
:102C2C007B680C4A02FB03F37B617B693B6102E02E
:102C3C00054B3B6100BF3B6918461C37BD4680BC49
:102C4C00704700BF0010024000127A00E8510008E3
:102C5C00F851000800093D0080B400AF024B1B681E
:102C6C001846BD4680BC70472400002080B500AFDC
:102C7C00FFF7F2FF0246054B5B681B0A03F00703E4
:102C8C000349CB5C22FA03F3184680BD00100240C6
:102C9C00E051000880B500AFFFF7DEFF0246054BA0
:102CAC005B68DB0A03F007030349CB5C22FA03F3EE
:102CBC00184680BD00100240E051000880B485B079
:102CCC0000AF78600A4B1B680A4AA2FB03235B0A1D
:102CDC007A6802FB03F3FB6000BFFB685A1EFA60C4
:102CEC00002BF9D100BF00BF1437BD4680BC704724
:102CFC0024000020D34D621080B582B000AF786004
:102D0C007B68002B01D1012341E07B6893F83D30B7
:102D1C00DBB2002B06D17B68002283F83C2078685C
:102D2C00FEF7ACFE7B68022283F83D207B681A68B4
:102D3C007B6804331946104600F030FC7B68012296
:102D4C0083F846207B68012283F83E207B680122B1
:102D5C0083F83F207B68012283F840207B680122A6
:102D6C0083F841207B68012283F842207B68012292
:102D7C0083F843207B68012283F844207B6801227E
:102D8C0083F845207B68012283F83D2000231846F8
:102D9C000837BD4680BD000080B485B000AF7860B8
:102DAC007B6893F83D30DBB2012B01D001233AE074
:102DBC007B68022283F83D207B681B68DA687B689D
:102DCC001B6842F00102DA607B681B68184A934268
:102DDC000ED07B681B68B3F1804F09D07B681B68F1
:102DEC00144A934204D07B681B68134A934211D156
:102DFC007B681B689B6803F00703FB60FB68062B72
:102E0C0010D07B681B681A687B681B6842F0010253
:102E1C001A6007E07B681B681A687B681B6842F0C5
:102E2C0001021A60002318461437BD4680BC704757
:102E3C00002C0140000400400008004080B582B026
:102E4C0000AF78607B68002B01D1012341E07B68E7
:102E5C0093F83D30DBB2002B06D17B68002283F85F
:102E6C003C20786800F039F87B68022283F83D201A
:102E7C007B681A687B6804331946104600F08EFB99
:102E8C007B68012283F846207B68012283F83E2070
:102E9C007B68012283F83F207B68012283F8402065
:102EAC007B68012283F841207B68012283F8422051
:102EBC007B68012283F843207B68012283F844203D
:102ECC007B68012283F845207B68012283F83D2032
:102EDC00002318460837BD4680BD80B483B000AFD0
:102EEC00786000BF0C37BD4680BC704780B584B09D
:102EFC0000AF786039603B68002B09D17B6893F890
:102F0C003E30DBB2012B14BF01230023DBB222E0E5
:102F1C003B68042B09D17B6893F83F30DBB2012B63
:102F2C0014BF01230023DBB215E03B68082B09D149
:102F3C007B6893F84030DBB2012B14BF01230023D4
:102F4C00DBB208E07B6893F84130DBB2012B14BF95
:102F5C0001230023DBB2002B01D001235EE03B6890
:102F6C00002B04D17B68022283F83E2013E03B68DF
:102F7C00042B04D17B68022283F83F200BE03B68D2
:102F8C00082B04D17B68022283F8402003E07B6885
:102F9C00022283F841207B681B680122396818469D
:102FAC0000F07CFD7B681B681E4A934207D17B684E
:102FBC001B685A6C7B681B6842F400425A647B683D
:102FCC001B68184A93420ED07B681B68B3F1804F84
:102FDC0009D07B681B68144A934204D07B681B6839
:102FEC00124A934211D17B681B689B6803F007035C
:102FFC00FB60FB68062B10D07B681B681A687B682B
:10300C001B6842F001021A6007E07B681B681A68B3
:10301C007B681B6842F001021A60002318461037C7
:10302C00BD4680BD002C014000040040000800405B
:10303C0080B582B000AF78607B681B681B6903F0B9
:10304C000203022B22D17B681B68DB6803F00203AE
:10305C00022B1BD17B681B686FF002021A617B6824
:10306C0001221A777B681B689B6903F00303002B12
:10307C0003D0786800F076FA05E0786800F069FA19
:10308C00786800F078FA7B6800221A777B681B68F6
:10309C001B6903F00403042B22D17B681B68DB68DB
:1030AC0003F00403042B1BD17B681B686FF0040234
:1030BC001A617B6802221A777B681B689B6903F490
:1030CC004073002B03D0786800F04CFA05E0786868
:1030DC0000F03FFA786800F04EFA7B6800221A770D
:1030EC007B681B681B6903F00803082B22D17B68E3
:1030FC001B68DB6803F00803082B1BD17B681B687B
:10310C006FF008021A617B6804221A777B681B68CF
:10311C00DB6903F00303002B03D0786800F022FA7C
:10312C0005E0786800F015FA786800F024FA7B68FE
:10313C0000221A777B681B681B6903F01003102BA5
:10314C0022D17B681B68DB6803F01003102B1BD1AA
:10315C007B681B686FF010021A617B6808221A7773
:10316C007B681B68DB6903F44073002B03D0786821
:10317C0000F0F8F905E0786800F0EBF9786800F0F9
:10318C00FAF97B6800221A777B681B681B6903F0CD
:10319C000103012B0ED17B681B68DB6803F0010374
:1031AC00012B07D17B681B686FF001021A617868EC
:1031BC00FDF76CFB7B681B681B6903F08003802B9D
:1031CC000ED17B681B68DB6803F08003802B07D172
:1031DC007B681B686FF080021A61786800F0E9FC6C
:1031EC007B681B681B6903F04003402B0ED17B6886
:1031FC001B68DB6803F04003402B07D17B681B681E
:10320C006FF040021A61786800F0BEF97B681B68A9
:10321C001B6903F02003202B0ED17B681B68DB6835
:10322C0003F02003202B07D17B681B686FF0200272
:10323C001A61786800F0B4FC00BF0837BD4680BD49
:10324C0080B586B000AFF860B9607A600023FB757A
:10325C00FB6893F83C30012B01D10223AEE0FB68F4
:10326C00012283F83C207B680C2B00F29F8001A28A
:10327C0052F823F0B5320008B9330008B93300080E
:10328C00B9330008F5320008B9330008B933000827
:10329C00B933000837330008B9330008B9330008D4
:1032AC00B933000877330008FB681B68B968184607
:1032BC0000F0D6F9FB681B689A69FB681B6842F042
:1032CC0008029A61FB681B689A69FB681B6822F00C
:1032DC0004029A61FB681B689969BB681A69FB68F0
:1032EC001B680A439A6164E0FB681B68B96818465E
:1032FC0000F01CFAFB681B689A69FB681B6842F4B7
:10330C0000629A61FB681B689A69FB681B6822F46F
:10331C0080629A61FB681B689969BB681B691A0219
:10332C00FB681B680A439A6143E0FB681B68B96839
:10333C00184600F065FAFB681B68DA69FB681B68C5
:10334C0042F00802DA61FB681B68DA69FB681B68EB
:10335C0022F00402DA61FB681B68D969BB681A6940
:10336C00FB681B680A43DA6123E0FB681B68B968D9
:10337C00184600F0AFFAFB681B68DA69FB681B683B
:10338C0042F40062DA61FB681B68DA69FB681B684F
:10339C0022F48062DA61FB681B68D969BB681B691F
:1033AC001A02FB681B680A43DA6102E00123FB7511
:1033BC0000BFFB68002283F83C20FB7D18461837C1
:1033CC00BD4680BD80B584B000AF78603960002305
:1033DC00FB737B6893F83C30012B01D10223B4E0E2
:1033EC007B68012283F83C207B68022283F83D2015
:1033FC007B681B689B68BB60BB6823F07703BB6072
:10340C00BB6823F47F43BB607B681B68BA689A6017
:10341C003B681B68B3F5005F3ED0B3F5005F00F26C
:10342C008780B3F5805F00F08680B3F5805F7FD82E
:10343C00702B1AD0702B7BD8602B50D0602B77D888
:10344C00502B3CD0502B73D8402B58D0402B6FD8DE
:10345C00302B64D0302B6BD8202B60D0202B67D82E
:10346C00002B5CD0102B5AD062E07B6818683B684C
:10347C0099683B685A683B68DB6800F0F0FA7B6837
:10348C001B689B68BB60BB6843F07703BB607B68C1
:10349C001B68BA689A604FE07B6818683B6899684B
:1034AC003B685A683B68DB6800F0D9FA7B681B689C
:1034BC009A687B681B6842F480429A603CE07B68A7
:1034CC0018683B6859683B68DB681A4600F050FA8C
:1034DC007B681B685021184600F0A7FA2CE07B682B
:1034EC0018683B6859683B68DB681A4600F06EFA4E
:1034FC007B681B686021184600F097FA1CE07B681B
:10350C0018683B6859683B68DB681A4600F030FA6B
:10351C007B681B684021184600F087FA0CE07B683A
:10352C001A683B681B681946104600F07EFA03E0E7
:10353C000123FB7300E000BF7B68012283F83D2070
:10354C007B68002283F83C20FB7B18461037BD4675
:10355C0080BD80B483B000AF786000BF0C37BD462F
:10356C0080BC704780B483B000AF786000BF0C376C
:10357C00BD4680BC704780B483B000AF786000BF9C
:10358C000C37BD4680BC704780B483B000AF786008
:10359C0000BF0C37BD4680BC7047000080B485B0BE
:1035AC0000AF786039607B681B68FB607B68294AD8
:1035BC0093420BD07B68B3F1804F07D07B68264ACF
:1035CC00934203D07B68254A934208D1FB6823F0D1
:1035DC007003FB603B685B68FA681343FB607B68B5
:1035EC001C4A93420BD07B68B3F1804F07D07B68A9
:1035FC00194A934203D07B68184A934208D1FB685E
:10360C0023F44073FB603B68DB68FA681343FB6090
:10361C00FB6823F080023B685B691343FB607B68AB
:10362C00FA681A603B689A687B68DA623B681A68C9
:10363C007B689A627B68074A934203D13B681A699C
:10364C007B681A637B6801225A6100BF1437BD4640
:10365C0080BC7047002C0140000400400008004072
:10366C0080B487B000AF786039607B681B6A7B617F
:10367C007B681B6A23F001027B681A627B685B68BB
:10368C003B617B689B69FB60FB6823F07003FB600C
:10369C00FB6823F00303FB603B681B68FA68134369
:1036AC00FB607B6923F002037B613B689B687A6952
:1036BC0013437B617B681C4A93420CD17B6923F0DA
:1036CC0008037B613B68DB687A6913437B617B6928
:1036DC0023F004037B617B68134A934211D13B694D
:1036EC0023F480733B613B6923F400733B613B68BB
:1036FC005B693A6913433B613B689B693A691343C5
:10370C003B617B683A695A607B68FA689A613B68EE
:10371C005A687B685A637B687A691A6200BF1C37E7
:10372C00BD4680BC704700BF002C014080B487B000
:10373C0000AF786039607B681B6A7B617B681B6AB1
:10374C0023F010027B681A627B685B683B617B68C4
:10375C009B69FB60FB6823F4E043FB60FB6823F48C
:10376C004073FB603B681B681B02FA681343FB60E9
:10377C007B6923F020037B613B689B681B017A69A2
:10378C0013437B617B681D4A93420DD17B6923F007
:10379C0080037B613B68DB681B017A6913437B61A7
:1037AC007B6923F040037B617B68144A934213D1FD
:1037BC003B6923F480633B613B6923F400633B6109
:1037CC003B685B699B003A6913433B613B689B69AF
:1037DC009B003A6913433B617B683A695A607B688A
:1037EC00FA689A613B685A687B689A637B687A6965
:1037FC001A6200BF1C37BD4680BC7047002C0140CC
:10380C0080B487B000AF786039607B681B6A7B61DD
:10381C007B681B6A23F480727B681A627B685B6826
:10382C003B617B68DB69FB60FB6823F07003FB602A
:10383C00FB6823F00303FB603B681B68FA681343C7
:10384C00FB607B6923F400737B613B689B681B0204
:10385C007A6913437B617B681D4A93420DD17B6966
:10386C0023F400637B613B68DB681B027A691343BA
:10387C007B617B6923F480637B617B68144A934290
:10388C0013D13B6923F480533B613B6923F4005310
:10389C003B613B685B691B013A6913433B613B68C5
:1038AC009B691B013A6913433B617B683A695A6017
:1038BC007B68FA68DA613B685A687B68DA637B6814
:1038CC007A691A6200BF1C37BD4680BC704700BFC6
:1038DC00002C014080B487B000AF786039607B6801
:1038EC001B6A3B617B681B6A23F480527B681A62FB
:1038FC007B685B687B617B68DB69FB60FB6823F43E
:10390C00E043FB60FB6823F44073FB603B681B687F
:10391C001B02FA681343FB603B6923F400533B61C1
:10392C003B689B681B033A6913433B617B680F4AF6
:10393C00934209D17B6923F480437B613B685B69CB
:10394C009B017A6913437B617B687A695A607B6857
:10395C00FA68DA613B685A687B681A647B683A6972
:10396C001A6200BF1C37BD4680BC7047002C01405A
:10397C0080B487B000AFF860B9607A60FB681B6AEE
:10398C007B61FB681B6A23F00102FB681A62FB680F
:10399C009B693B613B6923F0F0033B617B681B0136
:1039AC003A6913433B617B6923F00A037B617A69B3
:1039BC00BB6813437B61FB683A699A61FB687A695F
:1039CC001A6200BF1C37BD4680BC704780B487B0FC
:1039DC0000AFF860B9607A60FB681B6A7B61FB68BA
:1039EC001B6A23F01002FB681A62FB689B693B613F
:1039FC003B6923F470433B617B681B033A691343B7
:103A0C003B617B6923F0A0037B61BB681B017A6976
:103A1C0013437B61FB683A699A61FB687A691A62A5
:103A2C0000BF1C37BD4680BC704780B485B000AF6A
:103A3C00786039607B689B68FB60FB6823F07003DF
:103A4C00FB603A68FB68134343F00703FB607B6839
:103A5C00FA689A6000BF1437BD4680BC704780B4CA
:103A6C0087B000AFF860B9607A603B60FB689B6818
:103A7C007B617B6923F47F437B613B681A027B6823
:103A8C001A43BB6813437A6913437B61FB687A69F9
:103A9C009A6000BF1C37BD4680BC704780B487B0AD
:103AAC0000AFF860B9607A60BB6803F01F030122B5
:103ABC0002FA03F37B61FB681A6A7B69DB431A40E9
:103ACC00FB681A62FB681A6ABB6803F01F0379680B
:103ADC0001FA03F31A43FB681A6200BF1C37BD4698
:103AEC0080BC704780B485B000AF786039607B686B
:103AFC0093F83C30012B01D1022346E07B68012274
:103B0C0083F83C207B68022283F83D207B681B688D
:103B1C005B68FB607B681B689B68BB60FB6823F081
:103B2C007003FB603B681B68FA681343FB607B689F
:103B3C001B68FA685A607B681B68164A93420ED061
:103B4C007B681B68B3F1804F09D07B681B68124AF5
:103B5C00934204D07B681B68104A93420CD1BB681B
:103B6C0023F08003BB603B685B68BA681343BB609F
:103B7C007B681B68BA689A607B68012283F83D20D9
:103B8C007B68002283F83C20002318461437BD467E
:103B9C0080BC7047002C014000040040000800402D
:103BAC0080B483B000AF786000BF0C37BD4680BCDA
:103BBC00704780B483B000AF786000BF0C37BD464F
:103BCC0080BC704780B582B000AF78607B68002BFA
:103BDC0001D1012342E07B6893F84130DBB2002B2A
:103BEC0006D17B68002283F840207868FDF7B0FF8F
:103BFC007B68242283F841207B681B68DA687B6829
:103C0C001B6822F40052DA60786800F071FD7B6862
:103C1C001B681A697B681B6822F490421A617B68E6
:103C2C001B685A697B681B6822F02A025A617B6800
:103C3C001B68DA687B681B6842F40052DA607B68A8
:103C4C0000225A647B68202283F841207B68202262
:103C5C0083F842207B6800225A63002318460837F9
:103C6C00BD4680BD80B58AB002AFF860B9603B60DC
:103C7C001346FB8000237B61FB6893F84130DBB279
:103C8C00202B6DD1BB68002B02D0FB88002B01D1FF
:103C9C00012366E0FB6800225A64FB68212283F84A
:103CAC004120FEF79DF87861FB68FA889A84FB68DE
:103CBC00FA88DA84FB689B68B3F5805F08D1FB68EF
:103CCC001B69002B04D10023FB61BB68BB6103E0C3
:103CDC00BB68FB610023BB612AE03B6800937B69F6
:103CEC0000228021F86800F0F9FA0346002B01D07D
:103CFC00032336E0FB69002B0BD1BB691B881A46EA
:103D0C00FB681B68C2F308025A60BB690233BB61D3
:103D1C0007E0FB691A78FB681B685A60FB69013382
:103D2C00FB61FB68DB8C9BB2013B9AB2FB68DA84CB
:103D3C00FB68DB8C9BB2002BCFD13B6800937B697B
:103D4C0000224021F86800F0C9FA0346002B01D08C
:103D5C00032306E0FB68202283F84120002300E0C7
:103D6C00022318462037BD4680BD000080B5BAB08E
:103D7C0000AF78607B681B681B68C7F8E4307B6811
:103D8C001B68DB68C7F8E0307B681B685B69C7F8A9
:103D9C00DC300023C7F8D8300023C7F8D430D7F86C
:103DAC00E43003F00F03C7F8D830D7F8D830002B25
:103DBC000FD1D7F8E43003F02003002B09D0D7F84B
:103DCC00E03003F02003002B03D0786800F0D1FB27
:103DDC005BE2D7F8D830002B00F0DE80D7F8DC306F
:103DEC0003F00103002B06D1D7F8E03003F49073F5
:103DFC00002B00F0D180D7F8E43003F00103002B46
:103E0C000BD0D7F8E03003F48073002B05D07B681F
:103E1C005B6C43F001027B685A64D7F8E43003F022
:103E2C000403002B0BD0D7F8DC3003F00103002B7C
:103E3C0005D07B685B6C43F002027B685A64D7F850
:103E4C00E43003F00203002B0BD0D7F8DC3003F086
:103E5C000103002B05D07B685B6C43F004027B688C
:103E6C005A64D7F8E43003F00803002B11D0D7F8CC
:103E7C00E03003F02003002B05D1D7F8DC3003F041
:103E8C000103002B05D07B685B6C43F008027B6858
:103E9C005A647B685B6C002B00F0F281D7F8E4303D
:103EAC0003F02003002B08D0D7F8E03003F02003F8
:103EBC00002B02D0786800F05CFB7B681B685B69A8
:103ECC0003F04003002B14BF01230023DBB2C7F81F
:103EDC00D4307B685B6C03F00803002B03D1D7F85C
:103EEC00D430002B4FD0786800F066FA7B681B68E2
:103EFC005B6903F04003002B41D07B681B681433D3
:103F0C00C7F89C30D7F89C3053E8003FC7F898307E
:103F1C00D7F8983023F04003C7F8D0307B681B6883
:103F2C001433D7F8D020C7F8A820C7F8A430D7F896
:103F3C00A410D7F8A82041E80023C7F8A030D7F880
:103F4C00A030002BD9D17B68DB6B002B13D07B68A6
:103F5C00DB6B7E4A5A637B68DB6B1846FEF792F884
:103F6C000346002B16D07B68DB6B5B6B7A68D26BDD
:103F7C00104698470EE0786800F09CF90AE07868E3
:103F8C0000F098F906E0786800F094F97B6800225C
:103F9C005A6475E100BF73E17B681B6B012B40F029
:103FAC004F81D7F8E43003F01003002B00F0488168
:103FBC00D7F8E03003F01003002B00F04181002310
:103FCC00BB607B681B681B68BB607B681B685B689D
:103FDC00BB60BB687B681B685B6903F04003002B0C
:103FEC0000F0B6807B68DB6B1B685B68A7F8BE30A3
:103FFC00B7F8BE30002B00F045817B689B8DB7F87D
:10400C00BE209A4280F03E817B68B7F8BE20DA85EC
:10401C007B68DB6B9B69202B00F088807B681B68BE
:10402C000C33C7F88830D7F8883053E8003FC7F80E
:10403C008430D7F8843023F48073C7F8B8307B68A9
:10404C001B680C33D7F8B820C7F89420C7F8903009
:10405C00D7F89010D7F8942041E80023C7F88C309B
:10406C00D7F88C30002BD9D17B681B6814337B6755
:10407C007B6F53E8003F3B673B6F23F00103C7F8AE
:10408C00B4307B681B681433D7F8B420C7F8802091
:10409C00FB67F96FD7F8802041E80023BB67BB6F43
:1040AC00002BE1D17B681B6814333B663B6E53E8F5
:1040BC00003FFB65FB6D23F04003C7F8B0307B6815
:1040CC001B681433D7F8B020FA66BB66B96EFA6E6B
:1040DC0041E800237B667B6E002BE3D17B682022BA
:1040EC0083F842207B6800221A637B681B680C33C0
:1040FC00FB64FB6C53E8003FBB64BB6C23F0100308
:10410C00C7F8AC307B681B680C33D7F8AC20BA65A9
:10411C007B65796DBA6D41E800233B653B6D002BE7
:10412C00E3D17B68DB6B1846FDF771FF7B680222DD
:10413C005A637B689A8D7B68DB8D9BB2D31A9BB2DA
:10414C001946786800F0BFF89CE000BF894400086D
:10415C007B689A8D7B68DB8D9BB2D31AA7F8CE3027
:10416C007B68DB8D9BB2002B00F08E80B7F8CE30D5
:10417C00002B00F089807B681B680C33BB63BB6B26
:10418C0053E8003F7B637B6B23F49073C7F8C83014
:10419C007B681B680C33D7F8C8207A643B64396C95
:1041AC007A6C41E80023FB63FB6B002BE3D17B684B
:1041BC001B6814337B627B6A53E8003F3B623B6AAB
:1041CC0023F00103C7F8C4307B681B681433D7F89D
:1041DC00C4203A63FB62F96A3A6B41E80023BB6284
:1041EC00BB6A002BE3D17B68202283F842207B68DA
:1041FC0000221A637B681B680C333B613B6953E8F4
:10420C00003FFB60FB6823F01003C7F8C0307B68ED
:10421C001B680C33D7F8C020FA61BB61B969FA6925
:10422C0041E800237B617B69002BE3D17B68022290
:10423C005A63B7F8CE301946786800F044F823E09A
:10424C00D7F8E43003F08003002B09D0D7F8E03026
:10425C0003F08003002B03D0786800F023F914E0FE
:10426C00D7F8E43003F04003002B0ED0D7F8E03041
:10427C0003F04003002B08D0786800F062F904E0EA
:10428C0000BF02E000BF00E000BFE837BD4680BDC4
:10429C0080B483B000AF786000BF0C37BD4680BCE3
:1042AC00704780B483B000AF786000BF0C37BD4658
:1042BC0080BC704780B483B000AF786000BF0C370F
:1042CC00BD4680BC704780B483B000AF78600B46AD
:1042DC007B8000BF0C37BD4680BC704780B590B06A
:1042EC0000AFF860B9603B601346FB7150E0BB6CEB
:1042FC00B3F1FF3F4CD0BB6C002B07D0FDF770FD2A
:10430C0002463B68D31ABA6C9A4241D2FB681B68CE
:10431C000C33BB62BB6A53E8003F7B627B6A23F4BD
:10432C00D073FB63FB681B680C33FA6B7A633B63DB
:10433C00396B7A6B41E80023FB62FB6A002BE5D1F9
:10434C00FB681B6814337B617B6953E8003F3B615E
:10435C003B6923F00103BB63FB681B681433BA6B26
:10436C003A62FB61F9693A6A41E80023BB61BB69B7
:10437C00002BE5D1FB68202283F84120FB6820222A
:10438C0083F84220FB68002283F8402003230FE0CF
:10439C00FB681B681A68BB681340BA689A420CBF6A
:1043AC0001230023DBB21A46FB799A429FD00023EB
:1043BC0018464037BD4680BD80B495B000AF7860DC
:1043CC007B681B680C337B637B6B53E8003F3B6360
:1043DC003B6B23F49073FB647B681B680C33FA6CA7
:1043EC003A64FB63F96B3A6C41E80023BB63BB6B2B
:1043FC00002BE5D17B681B6814333B623B6A53E8A6
:10440C00003FFB61FB6923F00103BB647B681B6805
:10441C001433BA6CFA62BB62B96AFA6A41E80023D7
:10442C007B627B6A002BE5D17B681B6B012B19D15E
:10443C007B681B680C33FB60FB6853E8003FBB6078
:10444C00BB6823F010037B647B681B680C337A6CAD
:10445C00BA617B617969BA6941E800233B613B69C8
:10446C00002BE5D17B68202283F842207B68002258
:10447C001A6300BF5437BD4680BC704780B584B00A
:10448C0000AF78607B685B6AFB60FB680022DA85B2
:10449C00FB680022DA84F868FFF70CFF00BF1037C6
:1044AC00BD4680BD80B485B000AF78607B6893F862
:1044BC004130DBB2212B3ED17B689B68B3F5805F2A
:1044CC0014D17B681B69002B10D17B681B6AFB60C5
:1044DC00FB681B881A467B681B68C2F308025A608B
:1044EC007B681B6A9A1C7B681A6208E07B681B6AF3
:1044FC00591C7A6811621A787B681B685A607B6851
:10450C00DB8C9BB2013B9BB27A681946D184002BA1
:10451C000FD17B681B68DA687B681B6822F080020D
:10452C00DA607B681B68DA687B681B6842F04002C3
:10453C00DA60002300E0022318461437BD4680BC25
:10454C00704780B582B000AF78607B681B68DA6812
:10455C007B681B6822F04002DA607B68202283F8BB
:10456C0041207868FFF794FE002318460837BD46B3
:10457C0080BD80B58CB000AF78607B6893F842301A
:10458C00DBB2222B40F0AE807B689B68B3F5805F7A
:10459C0017D17B681B69002B13D10023FB627B684E
:1045AC009B6ABB627B681B685B689BB2C3F30803A6
:1045BC009AB2BB6A1A807B689B6A9A1C7B689A6267
:1045CC0026E07B689B6AFB620023BB627B689B686E
:1045DC00B3F5805F07D07B689B68002B0AD17B68A2
:1045EC001B69002B06D17B681B685B68DAB2FB6A1F
:1045FC001A7008E07B681B685B68DBB203F07F0312
:10460C00DAB2FB6A1A707B689B6A5A1C7B689A62E6
:10461C007B68DB8D9BB2013B9BB27A681946D185D6
:10462C00002B5DD17B681B68DA687B681B6822F005
:10463C002002DA607B681B68DA687B681B6822F4EE
:10464C008072DA607B681B685A697B681B6822F091
:10465C0001025A617B68202283F842207B68002289
:10466C005A637B681B6B012B35D17B6800221A6364
:10467C007B681B680C337B617B6953E8003F3B61B3
:10468C003B6923F010037B627B681B680C337A6AEE
:10469C003A62FB61F9693A6A41E80023BB61BB6984
:1046AC00002BE5D17B681B681B6803F01003102BF3
:1046BC000AD10023FB607B681B681B68FB607B686E
:1046CC001B685B68FB60FB687B689B8D1946786890
:1046DC00FFF7F9FD02E07868FFF7E3FD002302E045
:1046EC00002300E0022318463037BD4680BD000091
:1046FC0080B584B000AF78607B681B681B6923F4BD
:10470C0040517B68DA687B681B680A431A617B68D6
:10471C009A687B681B691A437B685B691343BB60AF
:10472C007B681B68DB6823F4B05323F00C037A68B6
:10473C001268B9680B43D3607B681B685B6923F410
:10474C0040717B689A697B681B680A435A617B6875
:10475C001B682C4A934203D1FEF79CFAF86002E0E6
:10476C00FEF784FAF860FA6813469B0013449A002B
:10477C001A447B685B689B00B2FBF3F3224AA2FBF2
:10478C0003235B091901FA6813469B0013449A0032
:10479C001A447B685B689B00B2FBF3F21A4BA3FBD9
:1047AC0002035B09642000FB03F3D31A1B013233B1
:1047BC00154AA2FB03235B0903F0F0031944FA68C2
:1047CC0013469B0013449A001A447B685B689B0059
:1047DC00B2FBF3F20C4BA3FB02035B09642000FB5E
:1047EC0003F3D31A1B013233074AA2FB03235B09E1
:1047FC0003F00F027B681B680A449A6000BF1037F5
:10480C00BD4680BD003801401F85EB51014B186837
:10481C00704700BF3000002070B500260C4D0D4CC9
:10482C00641BA410A64209D100F05CFC00260A4DC2
:10483C000A4C641BA410A64205D170BD55F8043B6C
:10484C0098470136EEE755F8043B98470136F2E7F6
:10485C003052000830520008305200083452000820
:10486C0003460244934200D1704703F8011BF9E759
:10487C000EB46FF0004100B59CB01DAB02900690D9
:10488C00079104910848094953F8042B05910068D5
:10489C0002A9019300F068F80022029B1A701CB068
:1048AC005DF804EB03B07047300000200802FFFFF6
:1048BC002DE9F0478E6882469E420C4690461F4674
:1048CC0038D88A8912F4906F32D02568096901337F
:1048DC00A5EB010965694B4405EB450505EBD57561
:1048EC006D109D4238BF1D46530531D5294600F049
:1048FC0053FB064650B90C234FF0FF30CAF800307A
:10490C00A38943F04003A381BDE8F0874A4621699F
:10491C0000F0CEFAA38923F4906343F08003A381C3
:10492C0026614E4426603E466561A5EB0905A560EF
:10493C00BE4200D93E4632464146206800F0C6FAD7
:10494C00A36822689B1B32440020A3602260DBE733
:10495C002A4600F07BFB06460028E1D1504621692F
:10496C0000F0CEFAC7E700002DE9F04F98468B898E
:10497C0007461B060D4614469DB00ED50B6963B950
:10498C00402100F009FB2860286120B90C233B6012
:10499C004FF0FF30D1E040236B61002309932023BB
:1049AC008DF8293030234FF00109CDF80C80DFF859
:1049BC00A4818DF82A3023469A4613F8012B0AB1AC
:1049CC00252AF9D1BAEB040B0BD05B4622462946BB
:1049DC003846FFF76DFF013000F0AA80099A5A445F
:1049EC0009929AF80030002B00F0A28000234FF0BF
:1049FC00FF32CDE905230AF1010A049307938DF8E0
:104A0C0053301A935446052214F8011B514800F0F8
:104A1C0041FA049AD8B9D00644BF20238DF85330FC
:104A2C00110744BF2B238DF853309AF800302A2BF2
:104A3C0015D0544600204FF00A0C079A214611F865
:104A4C00013B303B092B4ED9B0B1079214E0A0EBDF
:104A5C00080309FA03F31343A2460493D2E7039B1A
:104A6C00191D1B680391002BBBBF5B4242F0020275
:104A7C0007930793B8BF049223782E2B0CD163783D
:104A8C002A2B35D1039B02341A1D1B680392002B71
:104A9C00B8BF4FF0FF330593DFF8C8A00322504690
:104AAC00217800F0F7F940B14023A0EB0A0003FA9B
:104ABC0000F0049B01340343049314F8011B0622F9
:104ACC0025488DF8281000F0E5F9002838D0234B44
:104ADC001BBB039B073323F0070308330393099B8A
:104AEC003344099367E70C4601200CFB0232A5E71F
:104AFC0000234FF00A0C194601340593204610F898
:104B0C00012B303A092A03D9002BC5D00591C3E7F4
:104B1C00044601230CFB0121F0E703AB00932A466A
:104B2C0038460F4B04A9AFF30080421C0646D6D181
:104B3C00AB895B063FF52CAF09981DB0BDE8F08F33
:104B4C0003AB00932A463846054B04A900F07CF8C9
:104B5C00EBE700BFFA510008045200080000000007
:104B6C00BD480008005200082DE9F047164699464A
:104B7C008A680B6907469342B8BF1346336091F8B5
:104B8C0043200C46DDF820800AB1013333602368E2
:104B9C00990642BF336802333360256815F0060569
:104BAC0006D104F1190AE36832689B1AAB4228DC7F
:104BBC0094F84320131E226818BF012392062DD4AB
:104BCC004946384604F14302C047013020D02368DF
:104BDC00E56803F00603042B18BF002532684FF07C
:104BEC000006A36808BFAD1A226908BF25EAE5755F
:104BFC009342C4BF9B1AED181A34B5421AD1002047
:104C0C0008E00123524649463846C047013003D1DB
:104C1C004FF0FF30BDE8F0870135C4E73020E118D4
:104C2C0081F843005A1C94F845102244023382F850
:104C3C004310C5E70123224649463846C047013098
:104C4C00E6D00136D9E700002DE9FF470C46277E58
:104C5C009146782F80469A460C9904F1430207D866
:104C6C00622F0AD8002F00F0D980582F00F0A480B2
:104C7C0004F1420684F842703AE0A7F16303152B65
:104C8C00F6D801A050F823F0ED4C0008014D0008B7
:104C9C007D4C00087D4C00087D4C00087D4C0008C4
:104CAC00014D00087D4C00087D4C00087D4C00082F
:104CBC007D4C00080F4E0008314D0008F14D0008E6
:104CCC007D4C00087D4C0008314E00087D4C0008DE
:104CDC00314D00087D4C00087D4C0008F94D000852
:104CEC000B6804F142061A1D1B680A6084F84230F6
:104CFC000123A4E0256808682E0600F104030AD5F8
:104D0C0005680B60002D03DA2D236D4284F84330C7
:104D1C000A235E4819E015F0400F05680B6018BFB8
:104D2C002DB2EFE70B682568181D0860280601D521
:104D3C001D6802E06906FBD51D886F2F0CBF082388
:104D4C000A235248002184F843106668002EA8BF3D
:104D5C002168A660A4BF21F0040121600DB9002ECA
:104D6C004DD01646B5FBF3F103FB1157C75D06F8A2
:104D7C00017D2F46BB420D46F4D9082B0BD123687D
:104D8C00DF0708D5236961689942DEBF302306F836
:104D9C00013C06F1FF36921B22614B4621464046F0
:104DAC00CDF800A003AAFFF7DFFE01304CD14FF085
:104DBC00FF3004B0BDE8F087344884F845700E68C5
:104DCC00236856F8045B1F060E6014D5D90744BF40
:104DDC0043F0200323601DB9236823F020032360D4
:104DEC001023AFE7236843F020032360782328487F
:104DFC0084F84530E3E75E0648BFADB2E6E71646F9
:104E0C00BBE70B6826681D1D60690D6035061B68C5
:104E1C0001D5186002E07106FBD5188000231646F8
:104E2C002361BAE70B681A1D0A601E680021304620
:104E3C00626800F02FF808B1801B60606368236122
:104E4C00002384F84330A8E732464946404623699C
:104E5C00D0470130ABD023689B0713D4E068039B89
:104E6C009842B8BF1846A4E701233246494640464B
:104E7C00D04701309BD00135E36803995B1AAB42F4
:104E8C00F2DCEBE7002504F11906F5E70B520008FC
:104E9C001C520008034610B5C9B20244934218468E
:104EAC0001D1002003E0047801338C42F6D110BD0F
:104EBC000A44914200F1FF3300D1704710B511F84C
:104ECC00014B914203F8014FF9D110BD884210B546
:104EDC0001EB020402D98442234607D8431EA142A7
:104EEC0008D011F8012B03F8012FF8E70146024412
:104EFC008A4200D110BD13F8014D02F8014DF7E7BD
:104F0C0038B50546002943D051F8043C0C1F002B42
:104F1C00B8BFE41800F0D0F81E4A1368104633B935
:104F2C00636014602846BDE8384000F0CBB8A3425B
:104F3C000AD921686218934201BF1A685B6852183B
:104F4C00226063600460EDE71A465B680BB1A34214
:104F5C00FAD911685018A0420BD12068014450189E
:104F6C0083421160DED118685B68014411605360A4
:104F7C00D8E702D90C232B60D4E7206821188B4288
:104F8C0001BF19685B680918216063605460C9E748
:104F9C0038BD00BF10010020F8B5CD1C25F003056D
:104FAC0008350C2D38BF0C25002D064601DBA94217
:104FBC0003D90C2333600020F8BD00F07DF82149A3
:104FCC000A6814469CB9204F3B6823B921463046E9
:104FDC0000F062F838602946304600F05DF8431C5A
:104FEC0023D10C233046336000F06CF8E3E72368E0
:104FFC005B1B17D40B2B03D923601C44256004E0E6
:10500C006368A2420CBF0B605360304600F05AF844
:10501C0004F10B00231D20F00700C21ACCD01B1A80
:10502C00A350C9E722466468CCE7C41C24F00304EF
:10503C00A042E3D0211A304600F02EF80130DDD129
:10504C00CFE700BF1001002014010020F8B507467F
:10505C0014460E4621B91146BDE8F840FFF79CBF37
:10506C0022B9FFF74DFF25462846F8BD00F030F871
:10507C00A0420FD221463846FFF78EFF0546002886
:10508C00F2D031462246FFF713FF31463846FFF780
:10509C0037FFE9E73546E7E738B50023054D044609
:1050AC0008462B60FCF7E2FD431C02D12B6803B1D0
:1050BC00236038BD14050020014800F011B800BF72
:1050CC001C050020014800F00CB800BF1C05002096
:1050DC0051F8043C181F002BBCBF0B58C01870476C
:1050EC0070477047F8B500BFF8BC08BC9E467047C7
:0C50FC00F8B500BFF8BC08BC9E46704729
:105108001B5B324A0000000025640D0A0000000005
:105118005245443A20000000475245454E3A200087
:10512800414D4245523A20004D4F44452000000071
:10513800494E435245415345205245442054494D18
:105148004552203A20000000494E435245415345FC
:1051580020414D4245522054494D4552203A2000A5
:10516800494E43524541534520475245454E2054E8
:10517800494D4552203A2000534554205245442079
:1051880054494D4552203A20000000005345542010
:1051980059454C4C4F572054494D4552203A200010
:1051A80053455420475245454E2054494D455220B9
:1051B8003A200000425554544F4E5F332050524518
:1051C8005353203A200000000000000000000000B7
:1051D8000102030406070809000000000102030495
:1051E80002030405060708090A0B0C0D0E0F101020
:1051F8000102232D302B2000686C4C006566674542
:105208004647003031323334353637383941424336
:1052180044454600303132333435363738396162E7
:085228006364656600000000EC
:045230003101000840
:045234000D01000860
:10523800010101000101010002001000010001004C
:105248000A00000004000000060000000100000041
:10525800010000000024F40010000000010000001C
:1052680034000020000000000000000000000000E2
:105278000000000000000000000000000000000026
:105288000000000000000000000000000000000016
:105298000000000000000000000000000000000006
:1052A80000000000000000000000000000000000F6
:1052B80000000000000000000000000000000000E6
:0452C80000000000E2
:0400000508001CF1E2
:00000001FF
